:100000000C9458000C9480000C9480000C94800098
:100010000C9480000C9480000C9480000C94800060
:100020000C9480000C9480000C9480000C94800050
:100030000C9480000C9480000C9480000C94800040
:100040000C943D030C9480000C94AD030C94870336
:100050000C9480000C9480000C9480000C94800020
:100060000C9480000C948000000000002500280003
:100070002B00040404040404040402020202020229
:10008000030303030303010204081020408001025C
:1000900004081020010204081020000000080002DB
:1000A0000100000304070000000000000000B0068B
:1000B00011241FBECFEFD8E0DEBFCDBF11E0A0E01E
:1000C000B1E0E4E1F0E102C005900D92A831B10782
:1000D000D9F721E0A8E1B1E001C01D92A43CB2072C
:1000E000E1F710E0C8E5D0E004C02197FE010E94CE
:1000F000DD06C735D107C9F70E94DF030C94080855
:100100000C94000090E0FC01E656FF4F2491FC01A6
:10011000EA57FF4F3491FC01EE58FF4FE491EE2374
:10012000C9F0222339F0233001F1A8F4213019F16C
:10013000223029F1F0E0EE0FFF1FE859FF4FA591A3
:10014000B4918FB7F894EC91611126C030953E239D
:100150003C938FBF08952730A9F02830C9F0243090
:1001600049F7809180008F7D03C0809180008F7758
:1001700080938000DFCF84B58F7784BDDBCF84B5DB
:100180008F7DFBCF8091B0008F778093B000D2CF6E
:100190008091B0008F7DF9CF3E2BDACFAF92BF9226
:1001A000CF92DF92EF92FF920F931F93CF93DF9343
:1001B0006C017B018B01040F151FEB015E01AE1872
:1001C000BF08C017D10759F06991D601ED91FC9194
:1001D0000190F081E02DC6010995892B79F7C501C1
:1001E000DF91CF911F910F91FF90EF90DF90CF9013
:1001F000BF90AF900895FC01538D448D252F30E0C2
:10020000842F90E0821B930B541710F0CF96089523
:1002100001970895FC01918D828D981761F0A28D50
:10022000AE0FBF2FB11D5D968C91928D9F5F9F7316
:10023000928F90E008958FEF9FEF0895FC01918DCC
:10024000828D981731F0828DE80FF11D858D90E039
:1002500008958FEF9FEF0895FC01918D228D892FD6
:1002600090E0805C9F4F821B91098F7399270895BE
:1002700083E291E00E942C0121E0892B09F420E027
:10028000822F089580E090E0892B29F00E943801A8
:1002900081110C9400000895FC01A48DA80FB92FC2
:1002A000B11DA35ABF4F2C91848D90E001968F739E
:1002B0009927848FA689B7892C93A089B1898C91BD
:1002C000837080648C93938D848D981306C002880C
:1002D000F389E02D80818F7D80830895EF92FF92D6
:1002E0000F931F93CF93DF93EC0181E0888F9B8D59
:1002F0008C8D98131AC0E889F989808185FF15C013
:100300009FB7F894EE89FF896083E889F989808135
:100310008370806480839FBF81E090E0DF91CF9104
:100320001F910F91FF90EF900895F62E0B8D10E026
:100330000F5F1F4F0F731127E02E8C8D8E110CC095
:100340000FB607FCFACFE889F989808185FFF5CFE0
:10035000CE010E944C01F1CFEB8DEC0FFD2FF11D72
:10036000E35AFF4FF0829FB7F8940B8FEA89FB891D
:1003700080818062CFCF682F83E291E00C946E0180
:10038000CF93DF93EC01888D8823B9F0AA89BB89CC
:10039000E889F9898C9185FD03C0808186FD0DC0B7
:1003A0000FB607FCF7CF8C9185FFF2CF808185FFD8
:1003B000EDCFCE010E944C01E9CFDF91CF9108959E
:1003C000FC01F894A081B1818C91968141E050E0CC
:1003D0009A0101C0220F9A95EAF7209528232C93C1
:1003E00083E090E00197F1F7A081B1818C91968133
:1003F00001C0440F9A95EAF7482B4C9378940895DE
:10040000BF92CF92DF92EF92FF920F931F93CF9301
:10041000DF936C01B42ED0E0C0E0EE24E394F12C25
:10042000062F10E0D601ED91FC91119717968C9153
:10043000970102C0220F331F8A95E2F7C901980184
:100440000C2E02C0359527950A94E2F7908120FF83
:1004500012C0892B8083C6010E94E0012196CB1532
:1004600008F3DF91CF911F910F91FF90EF90DF90F4
:10047000CF90BF90089580958923ECCF41E060E054
:100480000C940002EF92FF920F931F93CF93DF9390
:10049000EC01F62E6150770B81E090E0082F01C04F
:1004A000000F6A95EAF7EA81FB8140812F81BC0148
:1004B00002C0660F771F2A95E2F79B01209524233F
:1004C0002083EC81FD8120813F8101C0880F3A9516
:1004D000EAF782238083E12C10E0CE010E94E00144
:1004E000212F30E035952795122FEC81FD818081F9
:1004F0006F81462F90E002C0959587956A95E2F747
:1005000080FF02C0102F122BE394FE10E6CFEA8189
:10051000FB81808121E030E001C0220F4A95EAF79B
:10052000822B8083812FDF91CF911F910F91FF90BC
:10053000EF9008950F931F93CF93DF93EC01062F55
:1005400043E064E0CE010E94000268E0CE010E9418
:100550004202182FCE010E943E02802F812381F794
:10056000812FDF91CF911F910F9108950F931F93CA
:10057000CF93DF93EC01062F43E064E0CE010E94AD
:10058000000268E0CE010E944202182FCE010E94B4
:100590003E02802F812381F3812FDF91CF911F9124
:1005A0000F9108951F93CF93DF93EC0145E060E036
:1005B0000E94000261E0CE010E9442028823D1F332
:1005C00068E0CE010E944202182FCE010E943E0236
:1005D000812FDF91CF911F9108951F93CF93DF93C8
:1005E000EC01162F45E062E00E94000248E0612F16
:1005F000CE010E94000261E0CE010E9442028823E7
:10060000D1F3CE01DF91CF911F910C943E021F9345
:10061000CF93DF93EC01162F43E066E00E940002C7
:1006200048E0612FCE010E940002CE01DF91CF9100
:100630001F910C943E02FC01A081B1818C919681A6
:1006400041E050E09A0101C0220F9A95EAF7209507
:1006500028232C9383E790E00197F1F7A081B181E3
:100660008C91968101C0440F9A95EAF7482B4C93E0
:100670008FE090E00197F1F708951F920F920FB667
:100680000F9211242F933F938F939F93AF93BF9318
:1006900080911F0190912001A0912101B091220130
:1006A00030911E0123E0230F2D3758F50196A11D2F
:1006B000B11D20931E0180931F0190932001A093F0
:1006C0002101B093220180911A0190911B01A09108
:1006D0001C01B0911D010196A11DB11D80931A014D
:1006E00090931B01A0931C01B0931D01BF91AF918A
:1006F0009F918F913F912F910F900FBE0F901F9060
:10070000189526E8230F0296A11DB11DD2CF1F9286
:100710000F920FB60F9211242F933F934F935F9335
:100720006F937F938F939F93AF93BF93EF93FF93B9
:1007300083E291E00E944C01FF91EF91BF91AF9154
:100740009F918F917F916F915F914F913F912F91E9
:100750000F900FBE0F901F9018951F920F920FB61B
:100760000F9211242F938F939F93EF93FF93E09118
:100770003301F09134018081E0913901F0913A0127
:1007800082FD1BC0908180913C018F5F8F7320910F
:100790003D01821741F0E0913C01F0E0ED5DFE4F3C
:1007A000958F80933C01FF91EF919F918F912F91B5
:1007B0000F900FBE0F901F9018958081F4CF789402
:1007C00084B5826084BD84B5816084BD85B5826056
:1007D00085BD85B5816085BD80916E008160809307
:1007E0006E00109281008091810082608093810070
:1007F0008091810081608093810080918000816080
:10080000809380008091B10084608093B1008091DA
:10081000B00081608093B00080917A008460809302
:100820007A0080917A00826080937A0080917A00C9
:10083000816080937A0080917A00806880937A004A
:100840001092C10088E692E00E94E306FC01118646
:1008500082E0828791E093872BE230E0318320832E
:100860002AE230E03383228329E230E03583248397
:1008700023E0268387832DE02087DF01AA59BD4F1F
:100880001C9211961C92F0931901E0931801A0910B
:100890003301B09134018C93A0912F01B0913001BC
:1008A0001C92A0913101B09132019C9310923B01B6
:1008B000A0913701B091380186E08C93A091350169
:1008C000B09136018C9180618C93A0913501B091EB
:1008D00036018C9188608C93A0913501B0913601DE
:1008E0008C9180688C93A0913501B09136018C91E8
:1008F0008F7D8C93A281B381278181E090E0AC0150
:1009000002C0440F551F2A95E2F79A013681AC01C7
:1009100001C0440F3A95EAF7242B2C93A081B181B2
:10092000268101C0880F2A95EAF78C9360E08085C4
:100930000E94820043E7E42EF12C5FE0C52ED12C0B
:1009400060E0662E60E0762EC0911801D09119010A
:1009500083E291E00E942C01892B09F4BDC083E25F
:1009600091E00E940A019985913049F1C8F09230D6
:1009700009F43CC08985833009F0AEC0EC85E930CC
:1009800008F0AAC0F0E0E953FB4F0C94DD060B051C
:10099000100560057805FE0536066C056C059B069E
:1009A000DE01A85CBE4F1C92EC9191E09E0F9C93DF
:1009B000EC0FFD2FF11D848781E08987DBCFDE01FD
:1009C000A75CBE4F8C939E01285C3E4FF90140818D
:1009D00091E0940F9083FE01E40FF11D84878C91C8
:1009E000811102C083E0E9CF82E0E7CFDE01A85C9D
:1009F000BE4FEC9191E09E0F9C93EC0FFD2FF11DEB
:100A00008487FE01E75CFE4F808181508083808176
:100A1000882341F3AFCF80E890E00E94BB015CC027
:100A2000CE010E941B0362E0CE010E94070362E038
:100A3000CE010E94ED0264E0CE010E94ED0261E071
:100A4000CE010E94ED02C7010197F1F760E0CE01EF
:100A50000E940703CE010E94D2028E010A591D4F47
:100A6000F801808361E0CE010E940703CE010E945D
:100A7000D202FE01E959FD4F8083F8018081803365
:100A800011F0823399F46FEFCE010E94070360E802
:100A9000CE010E94ED02C6010197F1F76FEECE0183
:100AA0000E94070362E0CE010E94ED0281E890E01F
:100AB0000E94BB0161E088850E94820019860CC0FB
:100AC000CE010E941B03198682E890E00E94BB01C0
:100AD00060E088850E9482006114710409F434CFBB
:100AE0000E943801882309F42FCF0E9400002CCFE8
:100AF000888819894A8929898889280F30E08E8554
:100B0000381778F4832F90E0FC013796EC0FFD1F27
:100B100054858C0F9D1FFC01E65CFE4F50833F5FA8
:100B2000EECF80E09E85891748F4FE01E80FF11DA5
:100B3000E65CFE4F9081290F8F5FF4CF421719F0CA
:100B400083E490E06ACF0E8564EBCE010E94070338
:100B500067E0CE010E94ED026A85CE010E949A02F2
:100B60006B85CE010E94B602CE010E94D2028D306A
:100B700009F03FC0912CB12CA12CBA2CA92C982C97
:100B80008824810E911CA11CB11C692D7727CE01F0
:100B90000E94ED026A85CE010E949A02682DCE0164
:100BA0000E94ED026A85CE010E949A02602FCE015A
:100BB0000E94ED026A85CE010E949A025E01F6EC67
:100BC000AF1AFEEFBF0A10E0011761F0F501619165
:100BD0005F01CE010E94ED026A85CE010E949A0259
:100BE0001F5FF2CF6B85CE010E94B602CE010E943C
:100BF000D20283E890E00E94BB0160CF64EBCE019B
:100C00000E94070363E0CE010E94ED026A85CE01D7
:100C10000E949A026B85CE010E94B602CE010E940C
:100C2000D2028D30F9F46EEDCE010E94ED026A859C
:100C3000CE010E949A026DEACE010E94ED026A8501
:100C4000CE010E949A0265EACE010E94ED026A85F9
:100C5000CE010E949A026B85CE010E94B602CE019F
:100C60000E94D202198684E890E0D7CE5E843F8449
:100C70008888498864EBCE010E94070366E0CE01B4
:100C80000E94ED026A85CE010E949A026B85CE0118
:100C90000E94B602CE010E94D2028E01065C1E4F57
:100CA0008D30C1F5912CB12CA12CBA2CA92C982CEB
:100CB00088248428692D7727CE010E94ED026A8559
:100CC000CE010E949A02682DCE010E94ED026A8533
:100CD000CE010E949A02652DCE010E94ED026A8526
:100CE000CE010E949A026B85CE010E94B602CE010F
:100CF0000E94D2025801912C591461F06B85CE01EB
:100D00000E94B602CE010E94D202F50181935F01DA
:100D10009394F2CF198685E890E00E94BB01E80128
:100D200010E0511609F4D8CE699183E291E00E9457
:100D30006E011F5FF6CF198688E890E00E94BB0124
:100D4000FE01EA59FD4F608183E291E00E946E014D
:100D5000C959DD4F688183E291E00E946E01BCCEEB
:100D6000E3E2F1E01382128288EE93E0A0E0B0E0CB
:100D700084839583A683B7838AE091E091838083FF
:100D800085EC90E09587848784EC90E09787868750
:100D900080EC90E0918B808B81EC90E0938B828B48
:100DA00082EC90E0958B848B86EC90E0978B868B21
:100DB000118E128E138E148E0895EE0FFF1F059064
:100DC000F491E02D09940F931F93CF93DF9382301A
:100DD000910510F482E090E0E091C201F091C3012E
:100DE00030E020E0B0E0A0E0309799F42115310523
:100DF00009F44AC0281B390B24303105D8F58A8103
:100E00009B816115710589F1FB0193838283FE014A
:100E100011C0408151810281138148175907E0F0C8
:100E20004817590799F4109761F012960C9312978E
:100E300013961C933296CF01DF91CF911F910F91A2
:100E400008950093C2011093C301F4CF2115310519
:100E500051F04217530738F0A901DB019A01BD0197
:100E6000DF01F801C1CFEF01F9CF9093C301809367
:100E7000C201CDCFFE01E20FF31F81939193225067
:100E8000310939832883D7CF2091C0013091C10126
:100E9000232B41F420910201309103013093C101D1
:100EA0002093C001209100013091010121153105ED
:100EB00041F42DB73EB74091040150910501241B28
:100EC000350BE091C001F091C101E217F307A0F4E6
:100ED0002E1B3F0B2817390778F0AC014E5F5F4F90
:100EE0002417350748F04E0F5F1F5093C101409300
:100EF000C001819391939FCFF0E0E0E09CCFCF932E
:100F0000DF930097E9F0FC01329713821282A091DF
:100F1000C201B091C301ED0130E020E01097A1F4CF
:100F200020813181820F931F2091C0013091C10136
:100F30002817390709F061C0F093C101E093C0019F
:100F4000DF91CF910895EA01CE17DF07E8F54A81D6
:100F50005B819E0141155105B1F7E901FB83EA83ED
:100F600049915991C40FD51FEC17FD0761F4808199
:100F700091810296840F951FE9019983888382816C
:100F800093819B838A83F0E0E0E012968D919C919F
:100F900013970097B9F52D913C911197CD010296C9
:100FA000820F931F2091C0013091C101281739078A
:100FB00039F6309751F51092C3011092C201B093E7
:100FC000C101A093C001BCCFD383C28340815181B2
:100FD000840F951FC817D90761F44E5F5F4F888152
:100FE0009981480F591F518340838A819B81938344
:100FF00082832115310509F0B0CFF093C301E0934E
:10100000C2019ECFFD01DC01C0CF13821282D7CF77
:04101000F894FFCF82
:101014000000C4018000000000006E01CE00FB004F
:08102400C0012C010A011E01AC
:00000001FF
